:1000000000308A007D280000FF00030E8301A1005C
:100010000A08A0008A010408A2007708A300780853
:10002000A4007908A5007A08A600831383128C30F7
:100030008400801E1D288C1A34288C308400801C7B
:1000400023288C183728220884002308F700240866
:10005000F8002508F9002608FA0020088A00210E79
:100060008300FF0E7F0E09008A110A1267288A1189
:100070000A123A280430AA0727082A02031845283A
:10008000831606108312061449288316061083125D
:10009000061028082A020318522883168610831295
:1000A00086145628831686108312861029082A0281
:1000B00003185F288316061183120615632883161A
:1000C0000611831206118C108A110A1223288C1E25
:1000D00067281A08AC008C128A110A1223282D30C6
:1000E00084008313000803197C28A530F700F70B60
:1000F00077280000800B75280800840183131F30C7
:1001000083050C3083169900A63098009030831236
:10011000980083161F149F141F159F1107309C0011
:100120000108C73908388100831290010030F800B7
:10013000043892003130831692009D01073086000A
:100140008C14C03083128B0483168C168312AA0180
:10015000A701A801A901AA01A701A801A90130309E
:100160002C02FC3E03185929043E5B29AB012B08E5
:10017000FD3C031CC5282B08A7002B08FE3CA8004B
:100180000330AD006F20AB0AB728AB012B08FD3C54
:10019000031CD4282B08A9002B08FE3CA700033021
:1001A000AD006F20AB0AC628AB012B08FD3C031C39
:1001B000E3282B08A8002B08FE3CA9000330AD0063
:1001C0006F20AB0AD5285929AB012B08FD3C031C35
:1001D000F0282B08A7000F30AD006F20AB0AE528F0
:1001E000A701AB012B08FD3C031CFD282B08A80030
:1001F0000F30AD006F20AB0AF228A801AB012B082D
:10020000FD3C031C0A292B08A9000F30AD006F200C
:10021000AB0AFF28A9015929AB012B08FD3C031C9F
:100220001B292B08A9002B08FE3CA8000330AD00B9
:100230006F20AB0A0D29AB012B08FD3C031C2A29BA
:100240002B08A8002B08FE3CA9000330AD006F204E
:10025000AB0A1C295929AB012B08FD3C031C3A2988
:100260002B08A9002B08FE3CA8000330AD006F202E
:10027000AB0A2C29AB012B08FD3C031C49292B0898
:10028000A7002B08FE3CA9000330AD006F20AB0A8D
:100290003B29AB012B08FD3C031C58292B08A80067
:1002A0002B08FE3CA7000330AD006F20AB0A4A29A3
:1002B0005929AB2863000A148A100A118207B6284C
:0602C000E4280C292B29A3
:02400E00713F00
:00000001FF
;PIC16F877A
;CRC=4BD8  CREATED="26-Jan-21 18:38"
