:1000000001308A00BA2900003D30840083130008C3
:1000100003191128A530F700F70B0C280000800BFE
:100020000A280800F701F8013E0803103F18F707F7
:10003000F70CF80CBF18F707F70CF80C3F19F70787
:10004000F70CF80CBF19F707F70CF80C3F1AF70775
:10005000F70CF80CBF1AF707F70CF80C3F1BF70763
:10006000F70CF80CBF1BF707F70CF80C08008E30E4
:10007000F7003E08F8003D08F900FA01F808031DF2
:100080004B287908F800F9010830F702F808031D39
:100090004B28F70153280310F81B5228F90DF80DCF
:1000A000F7034B28F8138A110A121D2A3D08031979
:1000B000C628C50041080319C628C50703186728C4
:1000C0007F30C502031CC6280319C6286B2881305F
:1000D000C5070318C6284508F700F801F901FA0119
:1000E0003E08C900C9173F08C8004008C7001830BB
:1000F000C500C601471C94284408FA07031C86283B
:10010000F90A031D8628F80A0319C6174308F907D8
:10011000031C8D28F80A0319C6174208BF00BF1731
:100120003F08F8070318C617C60DF80CF90CFA0CAF
:10013000C90CC80CC70C0310C50B79280130F70790
:100140000318C628F81BAB28C90DFA0DF90DF80DD8
:10015000F7030319C628C91FBC28FA0A031DBC28C7
:10016000F90A031DBC28F80A031DBC28F80CF90C79
:10017000FA0CF70A0319C6283E08C6004208C6064C
:10018000C61FC428F817CA28F813CA28F701F801AF
:10019000F901FA018A110A12342A41080319922935
:1001A000CD00450803199229CD02031CDC287F30BD
:1001B000CD0703189229E2288130CD02031C922931
:1001C000031992294D08F700F801F901FA01CC0151
:1001D0004208CB00CB174308CA004408C9001930B5
:1001E000CD004808C902031805290130CA020318C6
:1001F0000529CB0203180529CC0203180529CC0ACE
:10020000CB0ACA0A4808C90737294708CA0203188F
:1002100020290130CB0203182029CC020318202901
:10022000CC0ACB0A4708CA074808C907031C372964
:10023000CA0A031D3729CB0A031D3729CC0A3729DF
:1002400046088038CB02031836290130CC02031847
:100250003629CC0A46088038CB074708CA07031C52
:100260001429CB0A031D1429CC0A14297A14CD0BA6
:100270003A2945290310C90DCA0DCB0DCC0D031029
:10028000FA0DF90DF80DCE0DF1284E1C4D29031075
:10029000F80CF90CFA0CCE0C5029F703031992292B
:1002A000CE1B79290310C90DCA0DCB0DCC0D480802
:1002B000C902031865290130CA0203186529CB0257
:1002C00003186529CC02031C88294708CA020318B1
:1002D00070290130CB0203187029CC02031C882935
:1002E00046088038CB02031879290130CC02031C60
:1002F0008829FA0A031D8829F90A031D8829F80AA2
:10030000031D8829F70A03199229F80CF90CFA0C35
:100310004208CD004608CD06CD1F9029F817962932
:10032000F8139629F701F801F901FA018A110A1266
:100330004A2A8E30F7003D08F7023E08F9003F08D0
:10034000F800F917F7080319B0290310F908031D7D
:10035000AC29F8080319B029F90CF80CF70BA529FA
:10036000BE1FB729F809F909F80A0319F90A8A1111
:100370000A12532A840183131F3083050C3083161D
:100380009900A630980090308312980083161F14AD
:100390009F141F159F1107309C008312A001A1011B
:1003A000FF30A70027112708831687008312071143
:1003B0000C3097009501A710270883168700831239
:1003C00087100C309D009B018C1EE4291A08A800A0
:1003D0002808743A0319F029193A03195E2AC02A29
:1003E0008C1EF0291A08AF003230BD0004208C1E8C
:1003F000F7291A08B0003230BD0004208C1EFE29F7
:100400001A08B10030302F02B20030303002B30091
:1004100030303102B4003208BE006430BF00122018
:100420007808BD003308BE000A30BF0012207808EB
:100430003D073407BE01BD0037287A08A5007908BA
:10044000A4007808A3007708A200C001BF017F3094
:10045000BE008630BD002508C4002408C300230860
:10046000C2002208C10056287708BD007808BE00E7
:100470007908BF007A08C000C4007908C300780872
:10048000C2007708C100C801C7014830C6008530E6
:10049000C500CD287A08C0007908BF007808BE00E2
:1004A0007708BD0099297808A60026089500260837
:1004B0009B008C1E592A1A08A800C02A8C1E5E2A8E
:1004C0001A08A9003230BD0004208C1E652A1A08C3
:1004D000AA003230BD0004208C1E6C2A1A08AB0022
:1004E00030302902B50030302A02B60030302B02FD
:1004F000B7003508BE006430BF0012207808BD0088
:100500003608BE000A30BF00122078083D073707C2
:10051000B8003230BD0004208C1E8C2A1A08AC00B2
:100520003230BD0004208C1E932A1A08AD003230F0
:10053000BD0004208C1E9A2A1A08AE0030302C020E
:10054000B90030302D02BA0030302E02BB0039081D
:10055000BE006430BF0012207808BD003A08BE001B
:100560000A30BF00122078083D073B07BC0038085E
:1005700095003C089B008C1EBB2A1A08A800C02AC4
:04058000E829630003
:02400E00713F00
:00000001FF
;PIC16F877A
;CRC=2D40  CREATED="25-Jan-21 21:45"
